{
  "_format": "hh-sol-artifact-1",
  "contractName": "VideoLicenseNFT",
  "sourceName": "contracts/VideoLicenseNFT.sol",
  "abi": [
    {
      "inputs": [],
      "stateMutability": "nonpayable",
      "type": "constructor"
    },
    {
      "anonymous": false,
      "inputs": [
        {
          "indexed": true,
          "internalType": "uint256",
          "name": "masterId",
          "type": "uint256"
        },
        {
          "indexed": true,
          "internalType": "address",
          "name": "user",
          "type": "address"
        }
      ],
      "name": "AccessGranted",
      "type": "event"
    },
    {
      "anonymous": false,
      "inputs": [
        {
          "indexed": true,
          "internalType": "address",
          "name": "owner",
          "type": "address"
        },
        {
          "indexed": true,
          "internalType": "address",
          "name": "approved",
          "type": "address"
        },
        {
          "indexed": true,
          "internalType": "uint256",
          "name": "tokenId",
          "type": "uint256"
        }
      ],
      "name": "Approval",
      "type": "event"
    },
    {
      "anonymous": false,
      "inputs": [
        {
          "indexed": true,
          "internalType": "address",
          "name": "owner",
          "type": "address"
        },
        {
          "indexed": true,
          "internalType": "address",
          "name": "operator",
          "type": "address"
        },
        {
          "indexed": false,
          "internalType": "bool",
          "name": "approved",
          "type": "bool"
        }
      ],
      "name": "ApprovalForAll",
      "type": "event"
    },
    {
      "anonymous": false,
      "inputs": [
        {
          "indexed": true,
          "internalType": "uint256",
          "name": "tokenId",
          "type": "uint256"
        },
        {
          "indexed": false,
          "internalType": "uint256",
          "name": "price",
          "type": "uint256"
        },
        {
          "indexed": true,
          "internalType": "address",
          "name": "seller",
          "type": "address"
        }
      ],
      "name": "LicenseListed",
      "type": "event"
    },
    {
      "anonymous": false,
      "inputs": [
        {
          "indexed": true,
          "internalType": "uint256",
          "name": "tokenId",
          "type": "uint256"
        },
        {
          "indexed": true,
          "internalType": "uint256",
          "name": "masterId",
          "type": "uint256"
        },
        {
          "indexed": true,
          "internalType": "address",
          "name": "buyer",
          "type": "address"
        },
        {
          "indexed": false,
          "internalType": "address",
          "name": "creator",
          "type": "address"
        },
        {
          "indexed": false,
          "internalType": "uint256",
          "name": "price",
          "type": "uint256"
        },
        {
          "indexed": false,
          "internalType": "uint256",
          "name": "timestamp",
          "type": "uint256"
        }
      ],
      "name": "LicensePurchased",
      "type": "event"
    },
    {
      "anonymous": false,
      "inputs": [
        {
          "indexed": true,
          "internalType": "uint256",
          "name": "masterId",
          "type": "uint256"
        },
        {
          "indexed": true,
          "internalType": "address",
          "name": "creator",
          "type": "address"
        },
        {
          "indexed": false,
          "internalType": "string",
          "name": "metadataURI",
          "type": "string"
        },
        {
          "indexed": false,
          "internalType": "uint256",
          "name": "price",
          "type": "uint256"
        },
        {
          "indexed": false,
          "internalType": "uint256",
          "name": "royaltyPct",
          "type": "uint256"
        }
      ],
      "name": "MasterVideoMinted",
      "type": "event"
    },
    {
      "anonymous": false,
      "inputs": [
        {
          "indexed": true,
          "internalType": "uint256",
          "name": "tokenId",
          "type": "uint256"
        },
        {
          "indexed": false,
          "internalType": "uint256",
          "name": "price",
          "type": "uint256"
        },
        {
          "indexed": true,
          "internalType": "address",
          "name": "buyer",
          "type": "address"
        },
        {
          "indexed": true,
          "internalType": "address",
          "name": "seller",
          "type": "address"
        },
        {
          "indexed": false,
          "internalType": "uint256",
          "name": "royaltyPaid",
          "type": "uint256"
        }
      ],
      "name": "SecondarySale",
      "type": "event"
    },
    {
      "anonymous": false,
      "inputs": [
        {
          "indexed": true,
          "internalType": "address",
          "name": "from",
          "type": "address"
        },
        {
          "indexed": true,
          "internalType": "address",
          "name": "to",
          "type": "address"
        },
        {
          "indexed": true,
          "internalType": "uint256",
          "name": "tokenId",
          "type": "uint256"
        }
      ],
      "name": "Transfer",
      "type": "event"
    },
    {
      "inputs": [
        {
          "internalType": "address",
          "name": "to",
          "type": "address"
        },
        {
          "internalType": "uint256",
          "name": "tokenId",
          "type": "uint256"
        }
      ],
      "name": "approve",
      "outputs": [],
      "stateMutability": "nonpayable",
      "type": "function"
    },
    {
      "inputs": [
        {
          "internalType": "address",
          "name": "owner",
          "type": "address"
        }
      ],
      "name": "balanceOf",
      "outputs": [
        {
          "internalType": "uint256",
          "name": "",
          "type": "uint256"
        }
      ],
      "stateMutability": "view",
      "type": "function"
    },
    {
      "inputs": [
        {
          "internalType": "uint256",
          "name": "tokenId",
          "type": "uint256"
        }
      ],
      "name": "getApproved",
      "outputs": [
        {
          "internalType": "address",
          "name": "",
          "type": "address"
        }
      ],
      "stateMutability": "view",
      "type": "function"
    },
    {
      "inputs": [
        {
          "internalType": "uint256",
          "name": "masterId",
          "type": "uint256"
        }
      ],
      "name": "getMasterDetails",
      "outputs": [
        {
          "components": [
            {
              "internalType": "address",
              "name": "creator",
              "type": "address"
            },
            {
              "internalType": "string",
              "name": "metadataURI",
              "type": "string"
            },
            {
              "internalType": "uint256",
              "name": "price",
              "type": "uint256"
            },
            {
              "internalType": "uint256",
              "name": "royaltyPct",
              "type": "uint256"
            },
            {
              "internalType": "bool",
              "name": "isActive",
              "type": "bool"
            }
          ],
          "internalType": "struct VideoLicenseNFT.MasterVideo",
          "name": "",
          "type": "tuple"
        }
      ],
      "stateMutability": "view",
      "type": "function"
    },
    {
      "inputs": [
        {
          "internalType": "uint256",
          "name": "masterId",
          "type": "uint256"
        },
        {
          "internalType": "address",
          "name": "user",
          "type": "address"
        }
      ],
      "name": "hasAccess",
      "outputs": [
        {
          "internalType": "bool",
          "name": "",
          "type": "bool"
        }
      ],
      "stateMutability": "view",
      "type": "function"
    },
    {
      "inputs": [
        {
          "internalType": "address",
          "name": "owner",
          "type": "address"
        },
        {
          "internalType": "address",
          "name": "operator",
          "type": "address"
        }
      ],
      "name": "isApprovedForAll",
      "outputs": [
        {
          "internalType": "bool",
          "name": "",
          "type": "bool"
        }
      ],
      "stateMutability": "view",
      "type": "function"
    },
    {
      "inputs": [
        {
          "internalType": "uint256",
          "name": "",
          "type": "uint256"
        }
      ],
      "name": "licenses",
      "outputs": [
        {
          "internalType": "uint256",
          "name": "masterId",
          "type": "uint256"
        },
        {
          "internalType": "address",
          "name": "creator",
          "type": "address"
        },
        {
          "internalType": "uint256",
          "name": "purchasePrice",
          "type": "uint256"
        }
      ],
      "stateMutability": "view",
      "type": "function"
    },
    {
      "inputs": [
        {
          "internalType": "uint256",
          "name": "tokenId",
          "type": "uint256"
        },
        {
          "internalType": "uint256",
          "name": "price",
          "type": "uint256"
        }
      ],
      "name": "listLicenseForSale",
      "outputs": [],
      "stateMutability": "nonpayable",
      "type": "function"
    },
    {
      "inputs": [
        {
          "internalType": "uint256",
          "name": "",
          "type": "uint256"
        }
      ],
      "name": "masterVideos",
      "outputs": [
        {
          "internalType": "address",
          "name": "creator",
          "type": "address"
        },
        {
          "internalType": "string",
          "name": "metadataURI",
          "type": "string"
        },
        {
          "internalType": "uint256",
          "name": "price",
          "type": "uint256"
        },
        {
          "internalType": "uint256",
          "name": "royaltyPct",
          "type": "uint256"
        },
        {
          "internalType": "bool",
          "name": "isActive",
          "type": "bool"
        }
      ],
      "stateMutability": "view",
      "type": "function"
    },
    {
      "inputs": [
        {
          "internalType": "string",
          "name": "metadataURI",
          "type": "string"
        },
        {
          "internalType": "uint256",
          "name": "price",
          "type": "uint256"
        },
        {
          "internalType": "uint256",
          "name": "royaltyPct",
          "type": "uint256"
        }
      ],
      "name": "mintVideoAsset",
      "outputs": [
        {
          "internalType": "uint256",
          "name": "",
          "type": "uint256"
        }
      ],
      "stateMutability": "nonpayable",
      "type": "function"
    },
    {
      "inputs": [],
      "name": "name",
      "outputs": [
        {
          "internalType": "string",
          "name": "",
          "type": "string"
        }
      ],
      "stateMutability": "view",
      "type": "function"
    },
    {
      "inputs": [
        {
          "internalType": "uint256",
          "name": "tokenId",
          "type": "uint256"
        }
      ],
      "name": "ownerOf",
      "outputs": [
        {
          "internalType": "address",
          "name": "",
          "type": "address"
        }
      ],
      "stateMutability": "view",
      "type": "function"
    },
    {
      "inputs": [
        {
          "internalType": "uint256",
          "name": "",
          "type": "uint256"
        },
        {
          "internalType": "address",
          "name": "",
          "type": "address"
        }
      ],
      "name": "permanentAccess",
      "outputs": [
        {
          "internalType": "bool",
          "name": "",
          "type": "bool"
        }
      ],
      "stateMutability": "view",
      "type": "function"
    },
    {
      "inputs": [
        {
          "internalType": "uint256",
          "name": "masterId",
          "type": "uint256"
        }
      ],
      "name": "purchaseLicense",
      "outputs": [],
      "stateMutability": "payable",
      "type": "function"
    },
    {
      "inputs": [
        {
          "internalType": "uint256",
          "name": "tokenId",
          "type": "uint256"
        }
      ],
      "name": "purchaseSecondaryLicense",
      "outputs": [],
      "stateMutability": "payable",
      "type": "function"
    },
    {
      "inputs": [
        {
          "internalType": "address",
          "name": "from",
          "type": "address"
        },
        {
          "internalType": "address",
          "name": "to",
          "type": "address"
        },
        {
          "internalType": "uint256",
          "name": "tokenId",
          "type": "uint256"
        }
      ],
      "name": "safeTransferFrom",
      "outputs": [],
      "stateMutability": "nonpayable",
      "type": "function"
    },
    {
      "inputs": [
        {
          "internalType": "address",
          "name": "from",
          "type": "address"
        },
        {
          "internalType": "address",
          "name": "to",
          "type": "address"
        },
        {
          "internalType": "uint256",
          "name": "tokenId",
          "type": "uint256"
        },
        {
          "internalType": "bytes",
          "name": "data",
          "type": "bytes"
        }
      ],
      "name": "safeTransferFrom",
      "outputs": [],
      "stateMutability": "nonpayable",
      "type": "function"
    },
    {
      "inputs": [
        {
          "internalType": "uint256",
          "name": "",
          "type": "uint256"
        }
      ],
      "name": "secondaryListings",
      "outputs": [
        {
          "internalType": "uint256",
          "name": "",
          "type": "uint256"
        }
      ],
      "stateMutability": "view",
      "type": "function"
    },
    {
      "inputs": [
        {
          "internalType": "address",
          "name": "operator",
          "type": "address"
        },
        {
          "internalType": "bool",
          "name": "approved",
          "type": "bool"
        }
      ],
      "name": "setApprovalForAll",
      "outputs": [],
      "stateMutability": "nonpayable",
      "type": "function"
    },
    {
      "inputs": [
        {
          "internalType": "bytes4",
          "name": "interfaceId",
          "type": "bytes4"
        }
      ],
      "name": "supportsInterface",
      "outputs": [
        {
          "internalType": "bool",
          "name": "",
          "type": "bool"
        }
      ],
      "stateMutability": "view",
      "type": "function"
    },
    {
      "inputs": [],
      "name": "symbol",
      "outputs": [
        {
          "internalType": "string",
          "name": "",
          "type": "string"
        }
      ],
      "stateMutability": "view",
      "type": "function"
    },
    {
      "inputs": [
        {
          "internalType": "uint256",
          "name": "tokenId",
          "type": "uint256"
        }
      ],
      "name": "tokenURI",
      "outputs": [
        {
          "internalType": "string",
          "name": "",
          "type": "string"
        }
      ],
      "stateMutability": "view",
      "type": "function"
    },
    {
      "inputs": [
        {
          "internalType": "address",
          "name": "from",
          "type": "address"
        },
        {
          "internalType": "address",
          "name": "to",
          "type": "address"
        },
        {
          "internalType": "uint256",
          "name": "tokenId",
          "type": "uint256"
        }
      ],
      "name": "transferFrom",
      "outputs": [],
      "stateMutability": "nonpayable",
      "type": "function"
    }
  ],
  "bytecode": "0x60806040523480156200001157600080fd5b506040518060400160405280600f81526020017f566964656f4c6963656e73654e465400000000000000000000000000000000008152506040518060400160405280600581526020017f564c4e465400000000000000000000000000000000000000000000000000000081525081600090816200008f91906200032c565b508060019081620000a191906200032c565b505050600160068190555062000413565b600081519050919050565b7f4e487b7100000000000000000000000000000000000000000000000000000000600052604160045260246000fd5b7f4e487b7100000000000000000000000000000000000000000000000000000000600052602260045260246000fd5b600060028204905060018216806200013457607f821691505b6020821081036200014a5762000149620000ec565b5b50919050565b60008190508160005260206000209050919050565b60006020601f8301049050919050565b600082821b905092915050565b600060088302620001b47fffffffffffffffffffffffffffffffffffffffffffffffffffffffffffffffff8262000175565b620001c0868362000175565b95508019841693508086168417925050509392505050565b6000819050919050565b6000819050919050565b60006200020d620002076200020184620001d8565b620001e2565b620001d8565b9050919050565b6000819050919050565b6200022983620001ec565b62000241620002388262000214565b84845462000182565b825550505050565b600090565b6200025862000249565b620002658184846200021e565b505050565b5b818110156200028d57620002816000826200024e565b6001810190506200026b565b5050565b601f821115620002dc57620002a68162000150565b620002b18462000165565b81016020851015620002c1578190505b620002d9620002d08562000165565b8301826200026a565b50505b505050565b600082821c905092915050565b60006200030160001984600802620002e1565b1980831691505092915050565b60006200031c8383620002ee565b9150826002028217905092915050565b6200033782620000b2565b67ffffffffffffffff811115620003535762000352620000bd565b5b6200035f82546200011b565b6200036c82828562000291565b600060209050601f831160018114620003a457600084156200038f578287015190505b6200039b85826200030e565b8655506200040b565b601f198416620003b48662000150565b60005b82811015620003de57848901518255600182019150602085019450602081019050620003b7565b86831015620003fe5784890151620003fa601f891682620002ee565b8355505b6001600288020188555050505b505050505050565b6140aa80620004236000396000f3fe6080604052600436106101405760003560e01c80636352211e116100b6578063c87b56dd1161006f578063c87b56dd1461049b578063c8a028a8146104d8578063ced14198146104f4578063d5c034b614610531578063e985e9c51461056e578063f19006c4146105ab57610140565b80636352211e146103675780636e1a6770146103a457806370a08231146103e157806395d89b411461041e578063a22cb46514610449578063b88d4fde1461047257610140565b80631ef4fb7a116101085780631ef4fb7a1461023c57806323b872dd1461027d5780632e755336146102a657806333790845146102e357806342842e0e146103225780634a311c321461034b57610140565b806301ffc9a71461014557806306fdde0314610182578063081812fc146101ad578063095ea7b3146101ea57806315ab440614610213575b600080fd5b34801561015157600080fd5b5061016c60048036038101906101679190612990565b6105e8565b60405161017991906129d8565b60405180910390f35b34801561018e57600080fd5b506101976106ca565b6040516101a49190612a83565b60405180910390f35b3480156101b957600080fd5b506101d460048036038101906101cf9190612adb565b61075c565b6040516101e19190612b49565b60405180910390f35b3480156101f657600080fd5b50610211600480360381019061020c9190612b90565b6107a2565b005b34801561021f57600080fd5b5061023a60048036038101906102359190612bd0565b6108b9565b005b34801561024857600080fd5b50610263600480360381019061025e9190612adb565b6109dd565b604051610274959493929190612c1f565b60405180910390f35b34801561028957600080fd5b506102a4600480360381019061029f9190612c79565b610ac8565b005b3480156102b257600080fd5b506102cd60048036038101906102c89190612ccc565b610b28565b6040516102da91906129d8565b60405180910390f35b3480156102ef57600080fd5b5061030a60048036038101906103059190612adb565b610b57565b60405161031993929190612d0c565b60405180910390f35b34801561032e57600080fd5b5061034960048036038101906103449190612c79565b610ba1565b005b61036560048036038101906103609190612adb565b610bc1565b005b34801561037357600080fd5b5061038e60048036038101906103899190612adb565b610ed7565b60405161039b9190612b49565b60405180910390f35b3480156103b057600080fd5b506103cb60048036038101906103c69190612adb565b610f5d565b6040516103d89190612e30565b60405180910390f35b3480156103ed57600080fd5b5061040860048036038101906104039190612e52565b6110a1565b6040516104159190612e7f565b60405180910390f35b34801561042a57600080fd5b50610433611158565b6040516104409190612a83565b60405180910390f35b34801561045557600080fd5b50610470600480360381019061046b9190612ec6565b6111ea565b005b34801561047e57600080fd5b506104996004803603810190610494919061303b565b611200565b005b3480156104a757600080fd5b506104c260048036038101906104bd9190612adb565b611262565b6040516104cf9190612a83565b60405180910390f35b6104f260048036038101906104ed9190612adb565b6112ca565b005b34801561050057600080fd5b5061051b60048036038101906105169190612ccc565b611623565b60405161052891906129d8565b60405180910390f35b34801561053d57600080fd5b5061055860048036038101906105539190612adb565b61168b565b6040516105659190612e7f565b60405180910390f35b34801561057a57600080fd5b50610595600480360381019061059091906130be565b6116a3565b6040516105a291906129d8565b60405180910390f35b3480156105b757600080fd5b506105d260048036038101906105cd919061319f565b611737565b6040516105df9190612e7f565b60405180910390f35b60007f80ac58cd000000000000000000000000000000000000000000000000000000007bffffffffffffffffffffffffffffffffffffffffffffffffffffffff1916827bffffffffffffffffffffffffffffffffffffffffffffffffffffffff191614806106b357507f5b5e139f000000000000000000000000000000000000000000000000000000007bffffffffffffffffffffffffffffffffffffffffffffffffffffffff1916827bffffffffffffffffffffffffffffffffffffffffffffffffffffffff1916145b806106c357506106c282611944565b5b9050919050565b6060600080546106d99061323d565b80601f01602080910402602001604051908101604052809291908181526020018280546107059061323d565b80156107525780601f1061072757610100808354040283529160200191610752565b820191906000526020600020905b81548152906001019060200180831161073557829003601f168201915b5050505050905090565b6000610767826119ae565b6004600083815260200190815260200160002060009054906101000a900473ffffffffffffffffffffffffffffffffffffffff169050919050565b60006107ad82610ed7565b90508073ffffffffffffffffffffffffffffffffffffffff168373ffffffffffffffffffffffffffffffffffffffff160361081d576040517f08c379a0000000000000000000000000000000000000000000000000000000008152600401610814906132e0565b60405180910390fd5b8073ffffffffffffffffffffffffffffffffffffffff1661083c6119f9565b73ffffffffffffffffffffffffffffffffffffffff16148061086b575061086a816108656119f9565b6116a3565b5b6108aa576040517f08c379a00000000000000000000000000000000000000000000000000000000081526004016108a190613372565b60405180910390fd5b6108b48383611a01565b505050565b3373ffffffffffffffffffffffffffffffffffffffff166108d983610ed7565b73ffffffffffffffffffffffffffffffffffffffff161461092f576040517f08c379a0000000000000000000000000000000000000000000000000000000008152600401610926906133de565b60405180910390fd5b60008111610972576040517f08c379a00000000000000000000000000000000000000000000000000000000081526004016109699061344a565b60405180910390fd5b80600b6000848152602001908152602001600020819055503373ffffffffffffffffffffffffffffffffffffffff16827f774d3a60cfbd2803660a33e70cfe0640f8371325999cb5936d157f18ba788adc836040516109d19190612e7f565b60405180910390a35050565b60096020528060005260406000206000915090508060000160009054906101000a900473ffffffffffffffffffffffffffffffffffffffff1690806001018054610a269061323d565b80601f0160208091040260200160405190810160405280929190818152602001828054610a529061323d565b8015610a9f5780601f10610a7457610100808354040283529160200191610a9f565b820191906000526020600020905b815481529060010190602001808311610a8257829003601f168201915b5050505050908060020154908060030154908060040160009054906101000a900460ff16905085565b610ad9610ad36119f9565b82611aba565b610b18576040517f08c379a0000000000000000000000000000000000000000000000000000000008152600401610b0f906134dc565b60405180910390fd5b610b23838383611b4f565b505050565b600c6020528160005260406000206020528060005260406000206000915091509054906101000a900460ff1681565b600a6020528060005260406000206000915090508060000154908060010160009054906101000a900473ffffffffffffffffffffffffffffffffffffffff16908060020154905083565b610bbc83838360405180602001604052806000815250611200565b505050565b610bc9611e48565b6000600b600083815260200190815260200160002054905060008111610c24576040517f08c379a0000000000000000000000000000000000000000000000000000000008152600401610c1b90613548565b60405180910390fd5b80341015610c67576040517f08c379a0000000000000000000000000000000000000000000000000000000008152600401610c5e906135b4565b60405180910390fd5b6000610c7283610ed7565b90506000600a600085815260200190815260200160002090506000600960008360000154815260200190815260200160002090506000612710826003015434610cbb9190613603565b610cc59190613674565b905060008134610cd591906136a5565b90506001600c60008660000154815260200190815260200160002060003373ffffffffffffffffffffffffffffffffffffffff1673ffffffffffffffffffffffffffffffffffffffff16815260200190815260200160002060006101000a81548160ff021916908315150217905550600b600088815260200190815260200160002060009055610d6487611e97565b8260000160009054906101000a900473ffffffffffffffffffffffffffffffffffffffff1673ffffffffffffffffffffffffffffffffffffffff166108fc839081150290604051600060405180830381858888f19350505050158015610dce573d6000803e3d6000fd5b508473ffffffffffffffffffffffffffffffffffffffff166108fc829081150290604051600060405180830381858888f19350505050158015610e15573d6000803e3d6000fd5b508473ffffffffffffffffffffffffffffffffffffffff163373ffffffffffffffffffffffffffffffffffffffff16887fc3e3ea68c303085ba5fe6ce4ef1c9a723ca7dac346b92955a3750be87d37306e8986604051610e769291906136d9565b60405180910390a43373ffffffffffffffffffffffffffffffffffffffff1684600001547f3c3a9147a1fc73dd51a32f4d10c43d457e8cb826eb6f35cac6349eb965ba82b460405160405180910390a3505050505050610ed4611fe5565b50565b600080610ee383611fef565b9050600073ffffffffffffffffffffffffffffffffffffffff168173ffffffffffffffffffffffffffffffffffffffff1603610f54576040517f08c379a0000000000000000000000000000000000000000000000000000000008152600401610f4b9061374e565b60405180910390fd5b80915050919050565b610f656128dd565b600960008381526020019081526020016000206040518060a00160405290816000820160009054906101000a900473ffffffffffffffffffffffffffffffffffffffff1673ffffffffffffffffffffffffffffffffffffffff1673ffffffffffffffffffffffffffffffffffffffff168152602001600182018054610fe99061323d565b80601f01602080910402602001604051908101604052809291908181526020018280546110159061323d565b80156110625780601f1061103757610100808354040283529160200191611062565b820191906000526020600020905b81548152906001019060200180831161104557829003601f168201915b5050505050815260200160028201548152602001600382015481526020016004820160009054906101000a900460ff1615151515815250509050919050565b60008073ffffffffffffffffffffffffffffffffffffffff168273ffffffffffffffffffffffffffffffffffffffff1603611111576040517f08c379a0000000000000000000000000000000000000000000000000000000008152600401611108906137e0565b60405180910390fd5b600360008373ffffffffffffffffffffffffffffffffffffffff1673ffffffffffffffffffffffffffffffffffffffff168152602001908152602001600020549050919050565b6060600180546111679061323d565b80601f01602080910402602001604051908101604052809291908181526020018280546111939061323d565b80156111e05780601f106111b5576101008083540402835291602001916111e0565b820191906000526020600020905b8154815290600101906020018083116111c357829003601f168201915b5050505050905090565b6111fc6111f56119f9565b838361202c565b5050565b61121161120b6119f9565b83611aba565b611250576040517f08c379a0000000000000000000000000000000000000000000000000000000008152600401611247906134dc565b60405180910390fd5b61125c84848484612198565b50505050565b606061126d826119ae565b60006112776121f4565b9050600081511161129757604051806020016040528060008152506112c2565b806112a18461220b565b6040516020016112b292919061383c565b6040516020818303038152906040525b915050919050565b6112d2611e48565b60006009600083815260200190815260200160002090508060040160009054906101000a900460ff1661133a576040517f08c379a0000000000000000000000000000000000000000000000000000000008152600401611331906138ac565b60405180910390fd5b8060020154341015611381576040517f08c379a0000000000000000000000000000000000000000000000000000000008152600401611378906135b4565b60405180910390fd5b6001600c600084815260200190815260200160002060003373ffffffffffffffffffffffffffffffffffffffff1673ffffffffffffffffffffffffffffffffffffffff16815260200190815260200160002060006101000a81548160ff0219169083151502179055506113f460076122d9565b600061140060076122ef565b905061140c33826122fd565b60405180606001604052808481526020018360000160009054906101000a900473ffffffffffffffffffffffffffffffffffffffff1673ffffffffffffffffffffffffffffffffffffffff16815260200134815250600a60008381526020019081526020016000206000820151816000015560208201518160010160006101000a81548173ffffffffffffffffffffffffffffffffffffffff021916908373ffffffffffffffffffffffffffffffffffffffff1602179055506040820151816002015590505060008260040160006101000a81548160ff0219169083151502179055508160000160009054906101000a900473ffffffffffffffffffffffffffffffffffffffff1673ffffffffffffffffffffffffffffffffffffffff166108fc349081150290604051600060405180830381858888f19350505050158015611559573d6000803e3d6000fd5b503373ffffffffffffffffffffffffffffffffffffffff1683827f04af259bb4501a83279551a21f5baed67e463de6a2ce26106dafdbc282b678c98560000160009054906101000a900473ffffffffffffffffffffffffffffffffffffffff1634426040516115ca939291906138cc565b60405180910390a43373ffffffffffffffffffffffffffffffffffffffff16837f3c3a9147a1fc73dd51a32f4d10c43d457e8cb826eb6f35cac6349eb965ba82b460405160405180910390a35050611620611fe5565b50565b6000600c600084815260200190815260200160002060008373ffffffffffffffffffffffffffffffffffffffff1673ffffffffffffffffffffffffffffffffffffffff16815260200190815260200160002060009054906101000a900460ff16905092915050565b600b6020528060005260406000206000915090505481565b6000600560008473ffffffffffffffffffffffffffffffffffffffff1673ffffffffffffffffffffffffffffffffffffffff16815260200190815260200160002060008373ffffffffffffffffffffffffffffffffffffffff1673ffffffffffffffffffffffffffffffffffffffff16815260200190815260200160002060009054906101000a900460ff16905092915050565b600061138882111561177e576040517f08c379a00000000000000000000000000000000000000000000000000000000081526004016117759061394f565b60405180910390fd5b61178860086122d9565b600061179460086122ef565b90506040518060a001604052803373ffffffffffffffffffffffffffffffffffffffff168152602001868152602001858152602001848152602001600115158152506009600083815260200190815260200160002060008201518160000160006101000a81548173ffffffffffffffffffffffffffffffffffffffff021916908373ffffffffffffffffffffffffffffffffffffffff16021790555060208201518160010190816118459190613b1b565b50604082015181600201556060820151816003015560808201518160040160006101000a81548160ff0219169083151502179055509050506001600c600083815260200190815260200160002060003373ffffffffffffffffffffffffffffffffffffffff1673ffffffffffffffffffffffffffffffffffffffff16815260200190815260200160002060006101000a81548160ff0219169083151502179055503373ffffffffffffffffffffffffffffffffffffffff16817f42c4616e643f954e6255c1c28b9d8b87eeefd47a321b0c2c4a06b28d5a44a95487878760405161193193929190613bed565b60405180910390a3809150509392505050565b60007f01ffc9a7000000000000000000000000000000000000000000000000000000007bffffffffffffffffffffffffffffffffffffffffffffffffffffffff1916827bffffffffffffffffffffffffffffffffffffffffffffffffffffffff1916149050919050565b6119b78161231b565b6119f6576040517f08c379a00000000000000000000000000000000000000000000000000000000081526004016119ed9061374e565b60405180910390fd5b50565b600033905090565b816004600083815260200190815260200160002060006101000a81548173ffffffffffffffffffffffffffffffffffffffff021916908373ffffffffffffffffffffffffffffffffffffffff160217905550808273ffffffffffffffffffffffffffffffffffffffff16611a7483610ed7565b73ffffffffffffffffffffffffffffffffffffffff167f8c5be1e5ebec7d5bd14f71427d1e84f3dd0314c0f7b2291e5b200ac8c7c3b92560405160405180910390a45050565b600080611ac683610ed7565b90508073ffffffffffffffffffffffffffffffffffffffff168473ffffffffffffffffffffffffffffffffffffffff161480611b085750611b0781856116a3565b5b80611b4657508373ffffffffffffffffffffffffffffffffffffffff16611b2e8461075c565b73ffffffffffffffffffffffffffffffffffffffff16145b91505092915050565b8273ffffffffffffffffffffffffffffffffffffffff16611b6f82610ed7565b73ffffffffffffffffffffffffffffffffffffffff1614611bc5576040517f08c379a0000000000000000000000000000000000000000000000000000000008152600401611bbc90613c9d565b60405180910390fd5b600073ffffffffffffffffffffffffffffffffffffffff168273ffffffffffffffffffffffffffffffffffffffff1603611c34576040517f08c379a0000000000000000000000000000000000000000000000000000000008152600401611c2b90613d2f565b60405180910390fd5b611c41838383600161235c565b8273ffffffffffffffffffffffffffffffffffffffff16611c6182610ed7565b73ffffffffffffffffffffffffffffffffffffffff1614611cb7576040517f08c379a0000000000000000000000000000000000000000000000000000000008152600401611cae90613c9d565b60405180910390fd5b6004600082815260200190815260200160002060006101000a81549073ffffffffffffffffffffffffffffffffffffffff02191690556001600360008573ffffffffffffffffffffffffffffffffffffffff1673ffffffffffffffffffffffffffffffffffffffff168152602001908152602001600020600082825403925050819055506001600360008473ffffffffffffffffffffffffffffffffffffffff1673ffffffffffffffffffffffffffffffffffffffff16815260200190815260200160002060008282540192505081905550816002600083815260200190815260200160002060006101000a81548173ffffffffffffffffffffffffffffffffffffffff021916908373ffffffffffffffffffffffffffffffffffffffff160217905550808273ffffffffffffffffffffffffffffffffffffffff168473ffffffffffffffffffffffffffffffffffffffff167fddf252ad1be2c89b69c2b068fc378daa952ba7f163c4a11628f55a4df523b3ef60405160405180910390a4611e438383836001612362565b505050565b600260065403611e8d576040517f08c379a0000000000000000000000000000000000000000000000000000000008152600401611e8490613d9b565b60405180910390fd5b6002600681905550565b6000611ea282610ed7565b9050611eb281600084600161235c565b611ebb82610ed7565b90506004600083815260200190815260200160002060006101000a81549073ffffffffffffffffffffffffffffffffffffffff02191690556001600360008373ffffffffffffffffffffffffffffffffffffffff1673ffffffffffffffffffffffffffffffffffffffff168152602001908152602001600020600082825403925050819055506002600083815260200190815260200160002060006101000a81549073ffffffffffffffffffffffffffffffffffffffff021916905581600073ffffffffffffffffffffffffffffffffffffffff168273ffffffffffffffffffffffffffffffffffffffff167fddf252ad1be2c89b69c2b068fc378daa952ba7f163c4a11628f55a4df523b3ef60405160405180910390a4611fe1816000846001612362565b5050565b6001600681905550565b60006002600083815260200190815260200160002060009054906101000a900473ffffffffffffffffffffffffffffffffffffffff169050919050565b8173ffffffffffffffffffffffffffffffffffffffff168373ffffffffffffffffffffffffffffffffffffffff160361209a576040517f08c379a000000000000000000000000000000000000000000000000000000000815260040161209190613e07565b60405180910390fd5b80600560008573ffffffffffffffffffffffffffffffffffffffff1673ffffffffffffffffffffffffffffffffffffffff16815260200190815260200160002060008473ffffffffffffffffffffffffffffffffffffffff1673ffffffffffffffffffffffffffffffffffffffff16815260200190815260200160002060006101000a81548160ff0219169083151502179055508173ffffffffffffffffffffffffffffffffffffffff168373ffffffffffffffffffffffffffffffffffffffff167f17307eab39ab6107e8899845ad3d59bd9653f200f220920489ca2b5937696c318360405161218b91906129d8565b60405180910390a3505050565b6121a3848484611b4f565b6121af84848484612368565b6121ee576040517f08c379a00000000000000000000000000000000000000000000000000000000081526004016121e590613e99565b60405180910390fd5b50505050565b606060405180602001604052806000815250905090565b60606000600161221a846124ef565b01905060008167ffffffffffffffff81111561223957612238612f10565b5b6040519080825280601f01601f19166020018201604052801561226b5781602001600182028036833780820191505090505b509050600082602001820190505b6001156122ce578080600190039150507f3031323334353637383961626364656600000000000000000000000000000000600a86061a8153600a85816122c2576122c1613645565b5b04945060008503612279575b819350505050919050565b6001816000016000828254019250508190555050565b600081600001549050919050565b612317828260405180602001604052806000815250612642565b5050565b60008073ffffffffffffffffffffffffffffffffffffffff1661233d83611fef565b73ffffffffffffffffffffffffffffffffffffffff1614159050919050565b50505050565b50505050565b60006123898473ffffffffffffffffffffffffffffffffffffffff1661269d565b156124e2578373ffffffffffffffffffffffffffffffffffffffff1663150b7a026123b26119f9565b8786866040518563ffffffff1660e01b81526004016123d49493929190613f0e565b6020604051808303816000875af192505050801561241057506040513d601f19601f8201168201806040525081019061240d9190613f6f565b60015b612492573d8060008114612440576040519150601f19603f3d011682016040523d82523d6000602084013e612445565b606091505b50600081510361248a576040517f08c379a000000000000000000000000000000000000000000000000000000000815260040161248190613e99565b60405180910390fd5b805181602001fd5b63150b7a0260e01b7bffffffffffffffffffffffffffffffffffffffffffffffffffffffff1916817bffffffffffffffffffffffffffffffffffffffffffffffffffffffff1916149150506124e7565b600190505b949350505050565b600080600090507a184f03e93ff9f4daa797ed6e38ed64bf6a1f010000000000000000831061254d577a184f03e93ff9f4daa797ed6e38ed64bf6a1f010000000000000000838161254357612542613645565b5b0492506040810190505b6d04ee2d6d415b85acef8100000000831061258a576d04ee2d6d415b85acef810000000083816125805761257f613645565b5b0492506020810190505b662386f26fc1000083106125b957662386f26fc1000083816125af576125ae613645565b5b0492506010810190505b6305f5e10083106125e2576305f5e10083816125d8576125d7613645565b5b0492506008810190505b61271083106126075761271083816125fd576125fc613645565b5b0492506004810190505b6064831061262a57606483816126205761261f613645565b5b0492506002810190505b600a8310612639576001810190505b80915050919050565b61264c83836126c0565b6126596000848484612368565b612698576040517f08c379a000000000000000000000000000000000000000000000000000000000815260040161268f90613e99565b60405180910390fd5b505050565b6000808273ffffffffffffffffffffffffffffffffffffffff163b119050919050565b600073ffffffffffffffffffffffffffffffffffffffff168273ffffffffffffffffffffffffffffffffffffffff160361272f576040517f08c379a000000000000000000000000000000000000000000000000000000000815260040161272690613fe8565b60405180910390fd5b6127388161231b565b15612778576040517f08c379a000000000000000000000000000000000000000000000000000000000815260040161276f90614054565b60405180910390fd5b61278660008383600161235c565b61278f8161231b565b156127cf576040517f08c379a00000000000000000000000000000000000000000000000000000000081526004016127c690614054565b60405180910390fd5b6001600360008473ffffffffffffffffffffffffffffffffffffffff1673ffffffffffffffffffffffffffffffffffffffff16815260200190815260200160002060008282540192505081905550816002600083815260200190815260200160002060006101000a81548173ffffffffffffffffffffffffffffffffffffffff021916908373ffffffffffffffffffffffffffffffffffffffff160217905550808273ffffffffffffffffffffffffffffffffffffffff16600073ffffffffffffffffffffffffffffffffffffffff167fddf252ad1be2c89b69c2b068fc378daa952ba7f163c4a11628f55a4df523b3ef60405160405180910390a46128d9600083836001612362565b5050565b6040518060a00160405280600073ffffffffffffffffffffffffffffffffffffffff1681526020016060815260200160008152602001600081526020016000151581525090565b6000604051905090565b600080fd5b600080fd5b60007fffffffff0000000000000000000000000000000000000000000000000000000082169050919050565b61296d81612938565b811461297857600080fd5b50565b60008135905061298a81612964565b92915050565b6000602082840312156129a6576129a561292e565b5b60006129b48482850161297b565b91505092915050565b60008115159050919050565b6129d2816129bd565b82525050565b60006020820190506129ed60008301846129c9565b92915050565b600081519050919050565b600082825260208201905092915050565b60005b83811015612a2d578082015181840152602081019050612a12565b60008484015250505050565b6000601f19601f8301169050919050565b6000612a55826129f3565b612a5f81856129fe565b9350612a6f818560208601612a0f565b612a7881612a39565b840191505092915050565b60006020820190508181036000830152612a9d8184612a4a565b905092915050565b6000819050919050565b612ab881612aa5565b8114612ac357600080fd5b50565b600081359050612ad581612aaf565b92915050565b600060208284031215612af157612af061292e565b5b6000612aff84828501612ac6565b91505092915050565b600073ffffffffffffffffffffffffffffffffffffffff82169050919050565b6000612b3382612b08565b9050919050565b612b4381612b28565b82525050565b6000602082019050612b5e6000830184612b3a565b92915050565b612b6d81612b28565b8114612b7857600080fd5b50565b600081359050612b8a81612b64565b92915050565b60008060408385031215612ba757612ba661292e565b5b6000612bb585828601612b7b565b9250506020612bc685828601612ac6565b9150509250929050565b60008060408385031215612be757612be661292e565b5b6000612bf585828601612ac6565b9250506020612c0685828601612ac6565b9150509250929050565b612c1981612aa5565b82525050565b600060a082019050612c346000830188612b3a565b8181036020830152612c468187612a4a565b9050612c556040830186612c10565b612c626060830185612c10565b612c6f60808301846129c9565b9695505050505050565b600080600060608486031215612c9257612c9161292e565b5b6000612ca086828701612b7b565b9350506020612cb186828701612b7b565b9250506040612cc286828701612ac6565b9150509250925092565b60008060408385031215612ce357612ce261292e565b5b6000612cf185828601612ac6565b9250506020612d0285828601612b7b565b9150509250929050565b6000606082019050612d216000830186612c10565b612d2e6020830185612b3a565b612d3b6040830184612c10565b949350505050565b612d4c81612b28565b82525050565b600082825260208201905092915050565b6000612d6e826129f3565b612d788185612d52565b9350612d88818560208601612a0f565b612d9181612a39565b840191505092915050565b612da581612aa5565b82525050565b612db4816129bd565b82525050565b600060a083016000830151612dd26000860182612d43565b5060208301518482036020860152612dea8282612d63565b9150506040830151612dff6040860182612d9c565b506060830151612e126060860182612d9c565b506080830151612e256080860182612dab565b508091505092915050565b60006020820190508181036000830152612e4a8184612dba565b905092915050565b600060208284031215612e6857612e6761292e565b5b6000612e7684828501612b7b565b91505092915050565b6000602082019050612e946000830184612c10565b92915050565b612ea3816129bd565b8114612eae57600080fd5b50565b600081359050612ec081612e9a565b92915050565b60008060408385031215612edd57612edc61292e565b5b6000612eeb85828601612b7b565b9250506020612efc85828601612eb1565b9150509250929050565b600080fd5b600080fd5b7f4e487b7100000000000000000000000000000000000000000000000000000000600052604160045260246000fd5b612f4882612a39565b810181811067ffffffffffffffff82111715612f6757612f66612f10565b5b80604052505050565b6000612f7a612924565b9050612f868282612f3f565b919050565b600067ffffffffffffffff821115612fa657612fa5612f10565b5b612faf82612a39565b9050602081019050919050565b82818337600083830152505050565b6000612fde612fd984612f8b565b612f70565b905082815260208101848484011115612ffa57612ff9612f0b565b5b613005848285612fbc565b509392505050565b600082601f83011261302257613021612f06565b5b8135613032848260208601612fcb565b91505092915050565b600080600080608085870312156130555761305461292e565b5b600061306387828801612b7b565b945050602061307487828801612b7b565b935050604061308587828801612ac6565b925050606085013567ffffffffffffffff8111156130a6576130a5612933565b5b6130b28782880161300d565b91505092959194509250565b600080604083850312156130d5576130d461292e565b5b60006130e385828601612b7b565b92505060206130f485828601612b7b565b9150509250929050565b600067ffffffffffffffff82111561311957613118612f10565b5b61312282612a39565b9050602081019050919050565b600061314261313d846130fe565b612f70565b90508281526020810184848401111561315e5761315d612f0b565b5b613169848285612fbc565b509392505050565b600082601f83011261318657613185612f06565b5b813561319684826020860161312f565b91505092915050565b6000806000606084860312156131b8576131b761292e565b5b600084013567ffffffffffffffff8111156131d6576131d5612933565b5b6131e286828701613171565b93505060206131f386828701612ac6565b925050604061320486828701612ac6565b9150509250925092565b7f4e487b7100000000000000000000000000000000000000000000000000000000600052602260045260246000fd5b6000600282049050600182168061325557607f821691505b6020821081036132685761326761320e565b5b50919050565b7f4552433732313a20617070726f76616c20746f2063757272656e74206f776e6560008201527f7200000000000000000000000000000000000000000000000000000000000000602082015250565b60006132ca6021836129fe565b91506132d58261326e565b604082019050919050565b600060208201905081810360008301526132f9816132bd565b9050919050565b7f4552433732313a20617070726f76652063616c6c6572206973206e6f7420746f60008201527f6b656e206f776e6572206f7220617070726f76656420666f7220616c6c000000602082015250565b600061335c603d836129fe565b915061336782613300565b604082019050919050565b6000602082019050818103600083015261338b8161334f565b9050919050565b7f4e6f7420746865206f776e657200000000000000000000000000000000000000600082015250565b60006133c8600d836129fe565b91506133d382613392565b602082019050919050565b600060208201905081810360008301526133f7816133bb565b9050919050565b7f5072696365206d757374206265203e2030000000000000000000000000000000600082015250565b60006134346011836129fe565b915061343f826133fe565b602082019050919050565b6000602082019050818103600083015261346381613427565b9050919050565b7f4552433732313a2063616c6c6572206973206e6f7420746f6b656e206f776e6560008201527f72206f7220617070726f76656400000000000000000000000000000000000000602082015250565b60006134c6602d836129fe565b91506134d18261346a565b604082019050919050565b600060208201905081810360008301526134f5816134b9565b9050919050565b7f4e6f7420666f722073616c650000000000000000000000000000000000000000600082015250565b6000613532600c836129fe565b915061353d826134fc565b602082019050919050565b6000602082019050818103600083015261356181613525565b9050919050565b7f496e73756666696369656e742066756e64730000000000000000000000000000600082015250565b600061359e6012836129fe565b91506135a982613568565b602082019050919050565b600060208201905081810360008301526135cd81613591565b9050919050565b7f4e487b7100000000000000000000000000000000000000000000000000000000600052601160045260246000fd5b600061360e82612aa5565b915061361983612aa5565b925082820261362781612aa5565b9150828204841483151761363e5761363d6135d4565b5b5092915050565b7f4e487b7100000000000000000000000000000000000000000000000000000000600052601260045260246000fd5b600061367f82612aa5565b915061368a83612aa5565b92508261369a57613699613645565b5b828204905092915050565b60006136b082612aa5565b91506136bb83612aa5565b92508282039050818111156136d3576136d26135d4565b5b92915050565b60006040820190506136ee6000830185612c10565b6136fb6020830184612c10565b9392505050565b7f4552433732313a20696e76616c696420746f6b656e2049440000000000000000600082015250565b60006137386018836129fe565b915061374382613702565b602082019050919050565b600060208201905081810360008301526137678161372b565b9050919050565b7f4552433732313a2061646472657373207a65726f206973206e6f74206120766160008201527f6c6964206f776e65720000000000000000000000000000000000000000000000602082015250565b60006137ca6029836129fe565b91506137d58261376e565b604082019050919050565b600060208201905081810360008301526137f9816137bd565b9050919050565b600081905092915050565b6000613816826129f3565b6138208185613800565b9350613830818560208601612a0f565b80840191505092915050565b6000613848828561380b565b9150613854828461380b565b91508190509392505050565b7f417373657420616c726561647920736f6c64206f7220696e6163746976650000600082015250565b6000613896601e836129fe565b91506138a182613860565b602082019050919050565b600060208201905081810360008301526138c581613889565b9050919050565b60006060820190506138e16000830186612b3a565b6138ee6020830185612c10565b6138fb6040830184612c10565b949350505050565b7f526f79616c747920746f6f206869676800000000000000000000000000000000600082015250565b60006139396010836129fe565b915061394482613903565b602082019050919050565b600060208201905081810360008301526139688161392c565b9050919050565b60008190508160005260206000209050919050565b60006020601f8301049050919050565b600082821b905092915050565b6000600883026139d17fffffffffffffffffffffffffffffffffffffffffffffffffffffffffffffffff82613994565b6139db8683613994565b95508019841693508086168417925050509392505050565b6000819050919050565b6000613a18613a13613a0e84612aa5565b6139f3565b612aa5565b9050919050565b6000819050919050565b613a32836139fd565b613a46613a3e82613a1f565b8484546139a1565b825550505050565b600090565b613a5b613a4e565b613a66818484613a29565b505050565b5b81811015613a8a57613a7f600082613a53565b600181019050613a6c565b5050565b601f821115613acf57613aa08161396f565b613aa984613984565b81016020851015613ab8578190505b613acc613ac485613984565b830182613a6b565b50505b505050565b600082821c905092915050565b6000613af260001984600802613ad4565b1980831691505092915050565b6000613b0b8383613ae1565b9150826002028217905092915050565b613b24826129f3565b67ffffffffffffffff811115613b3d57613b3c612f10565b5b613b47825461323d565b613b52828285613a8e565b600060209050601f831160018114613b855760008415613b73578287015190505b613b7d8582613aff565b865550613be5565b601f198416613b938661396f565b60005b82811015613bbb57848901518255600182019150602085019450602081019050613b96565b86831015613bd85784890151613bd4601f891682613ae1565b8355505b6001600288020188555050505b505050505050565b60006060820190508181036000830152613c078186612a4a565b9050613c166020830185612c10565b613c236040830184612c10565b949350505050565b7f4552433732313a207472616e736665722066726f6d20696e636f72726563742060008201527f6f776e6572000000000000000000000000000000000000000000000000000000602082015250565b6000613c876025836129fe565b9150613c9282613c2b565b604082019050919050565b60006020820190508181036000830152613cb681613c7a565b9050919050565b7f4552433732313a207472616e7366657220746f20746865207a65726f2061646460008201527f7265737300000000000000000000000000000000000000000000000000000000602082015250565b6000613d196024836129fe565b9150613d2482613cbd565b604082019050919050565b60006020820190508181036000830152613d4881613d0c565b9050919050565b7f5265656e7472616e637947756172643a207265656e7472616e742063616c6c00600082015250565b6000613d85601f836129fe565b9150613d9082613d4f565b602082019050919050565b60006020820190508181036000830152613db481613d78565b9050919050565b7f4552433732313a20617070726f766520746f2063616c6c657200000000000000600082015250565b6000613df16019836129fe565b9150613dfc82613dbb565b602082019050919050565b60006020820190508181036000830152613e2081613de4565b9050919050565b7f4552433732313a207472616e7366657220746f206e6f6e20455243373231526560008201527f63656976657220696d706c656d656e7465720000000000000000000000000000602082015250565b6000613e836032836129fe565b9150613e8e82613e27565b604082019050919050565b60006020820190508181036000830152613eb281613e76565b9050919050565b600081519050919050565b600082825260208201905092915050565b6000613ee082613eb9565b613eea8185613ec4565b9350613efa818560208601612a0f565b613f0381612a39565b840191505092915050565b6000608082019050613f236000830187612b3a565b613f306020830186612b3a565b613f3d6040830185612c10565b8181036060830152613f4f8184613ed5565b905095945050505050565b600081519050613f6981612964565b92915050565b600060208284031215613f8557613f8461292e565b5b6000613f9384828501613f5a565b91505092915050565b7f4552433732313a206d696e7420746f20746865207a65726f2061646472657373600082015250565b6000613fd26020836129fe565b9150613fdd82613f9c565b602082019050919050565b6000602082019050818103600083015261400181613fc5565b9050919050565b7f4552433732313a20746f6b656e20616c7265616479206d696e74656400000000600082015250565b600061403e601c836129fe565b915061404982614008565b602082019050919050565b6000602082019050818103600083015261406d81614031565b905091905056fea264697066735822122087dd29c66c317d8f99a2e9cc5726e996e3c5ef0c22181c0679fe70a80872868564736f6c63430008130033",
  "linkReferences": {},
  "deployedLinkReferences": {}
}